{
  "_format": "hh-sol-artifact-1",
  "contractName": "JointMoney",
  "sourceName": "contracts/JointMoney.sol",
  "abi": [
    {
      "anonymous": false,
      "inputs": [
        {
          "indexed": false,
          "internalType": "uint256",
          "name": "id",
          "type": "uint256"
        },
        {
          "indexed": false,
          "internalType": "address",
          "name": "member",
          "type": "address"
        },
        {
          "indexed": false,
          "internalType": "uint256",
          "name": "amount",
          "type": "uint256"
        }
      ],
      "name": "Deposit",
      "type": "event"
    },
    {
      "anonymous": false,
      "inputs": [
        {
          "indexed": false,
          "internalType": "uint256",
          "name": "id",
          "type": "uint256"
        },
        {
          "indexed": false,
          "internalType": "address",
          "name": "admin",
          "type": "address"
        },
        {
          "indexed": false,
          "internalType": "address[]",
          "name": "invites",
          "type": "address[]"
        }
      ],
      "name": "GroupCreated",
      "type": "event"
    },
    {
      "anonymous": false,
      "inputs": [
        {
          "indexed": false,
          "internalType": "uint256",
          "name": "id",
          "type": "uint256"
        },
        {
          "indexed": false,
          "internalType": "address",
          "name": "member",
          "type": "address"
        }
      ],
      "name": "MemberAccepted",
      "type": "event"
    },
    {
      "anonymous": false,
      "inputs": [
        {
          "indexed": false,
          "internalType": "uint256",
          "name": "id",
          "type": "uint256"
        },
        {
          "indexed": false,
          "internalType": "address[]",
          "name": "invites",
          "type": "address[]"
        }
      ],
      "name": "MembersInvited",
      "type": "event"
    },
    {
      "anonymous": false,
      "inputs": [
        {
          "indexed": false,
          "internalType": "uint256",
          "name": "id",
          "type": "uint256"
        },
        {
          "indexed": false,
          "internalType": "address",
          "name": "member",
          "type": "address"
        },
        {
          "indexed": false,
          "internalType": "uint256",
          "name": "amount",
          "type": "uint256"
        }
      ],
      "name": "Withdraw",
      "type": "event"
    },
    {
      "inputs": [
        {
          "internalType": "uint256",
          "name": "id",
          "type": "uint256"
        }
      ],
      "name": "acceptGroupInvitation",
      "outputs": [],
      "stateMutability": "nonpayable",
      "type": "function"
    },
    {
      "inputs": [
        {
          "internalType": "address[]",
          "name": "invites",
          "type": "address[]"
        }
      ],
      "name": "createGroup",
      "outputs": [
        {
          "internalType": "uint256",
          "name": "",
          "type": "uint256"
        }
      ],
      "stateMutability": "payable",
      "type": "function"
    },
    {
      "inputs": [
        {
          "internalType": "uint256",
          "name": "id",
          "type": "uint256"
        }
      ],
      "name": "deposit",
      "outputs": [],
      "stateMutability": "payable",
      "type": "function"
    },
    {
      "inputs": [
        {
          "internalType": "uint256",
          "name": "id",
          "type": "uint256"
        }
      ],
      "name": "getGroup",
      "outputs": [
        {
          "components": [
            {
              "internalType": "address",
              "name": "admin",
              "type": "address"
            },
            {
              "internalType": "address[]",
              "name": "members",
              "type": "address[]"
            },
            {
              "internalType": "address[]",
              "name": "invites",
              "type": "address[]"
            },
            {
              "internalType": "uint256",
              "name": "balance",
              "type": "uint256"
            }
          ],
          "internalType": "struct JointMoney.Group",
          "name": "",
          "type": "tuple"
        }
      ],
      "stateMutability": "view",
      "type": "function"
    },
    {
      "inputs": [
        {
          "internalType": "uint256",
          "name": "id",
          "type": "uint256"
        }
      ],
      "name": "getGroupBalance",
      "outputs": [
        {
          "internalType": "uint256",
          "name": "",
          "type": "uint256"
        }
      ],
      "stateMutability": "view",
      "type": "function"
    },
    {
      "inputs": [
        {
          "internalType": "uint256",
          "name": "id",
          "type": "uint256"
        },
        {
          "internalType": "address[]",
          "name": "invites",
          "type": "address[]"
        }
      ],
      "name": "inviteMembers",
      "outputs": [],
      "stateMutability": "nonpayable",
      "type": "function"
    },
    {
      "inputs": [
        {
          "internalType": "uint256",
          "name": "id",
          "type": "uint256"
        },
        {
          "internalType": "address",
          "name": "member",
          "type": "address"
        }
      ],
      "name": "removeMember",
      "outputs": [],
      "stateMutability": "nonpayable",
      "type": "function"
    },
    {
      "inputs": [
        {
          "internalType": "uint256",
          "name": "id",
          "type": "uint256"
        },
        {
          "internalType": "uint256",
          "name": "amount",
          "type": "uint256"
        },
        {
          "internalType": "address payable",
          "name": "to",
          "type": "address"
        }
      ],
      "name": "withdraw",
      "outputs": [],
      "stateMutability": "nonpayable",
      "type": "function"
    }
  ],
  "bytecode": "0x608060405234801561001057600080fd5b5061208f806100206000396000f3fe60806040526004361061007b5760003560e01c8063bd5f14891161004e578063bd5f14891461012b578063ceb606541461015b578063d4bf578c14610198578063fa59d81f146101c15761007b565b80630ad58d2f146100805780636be7658b146100a9578063b6b55f25146100d2578063b9848d15146100ee575b600080fd5b34801561008c57600080fd5b506100a760048036038101906100a291906114c2565b6101ea565b005b3480156100b557600080fd5b506100d060048036038101906100cb9190611553565b6102f3565b005b6100ec60048036038101906100e79190611593565b610650565b005b3480156100fa57600080fd5b5061011560048036038101906101109190611593565b6106c9565b60405161012291906115cf565b60405180910390f35b61014560048036038101906101409190611743565b6106e8565b60405161015291906115cf565b60405180910390f35b34801561016757600080fd5b50610182600480360381019061017d9190611593565b610933565b60405161018f91906118c3565b60405180910390f35b3480156101a457600080fd5b506101bf60048036038101906101ba91906118e5565b610adb565b005b3480156101cd57600080fd5b506101e860048036038101906101e39190611593565b610e79565b005b6101f3836111e1565b600080600085815260200190815260200160002090508281600301541015610250576040517f08c379a00000000000000000000000000000000000000000000000000000000081526004016102479061199e565b60405180910390fd5b8281600301600082825461026491906119ed565b925050819055508173ffffffffffffffffffffffffffffffffffffffff166108fc849081150290604051600060405180830381858888f193505050501580156102b1573d6000803e3d6000fd5b507f9da6493a92039daf47d1f2d7a782299c5994c6323eb1e972f69c432089ec52bf8433856040516102e593929190611a30565b60405180910390a150505050565b3373ffffffffffffffffffffffffffffffffffffffff1660008084815260200190815260200160002060000160009054906101000a900473ffffffffffffffffffffffffffffffffffffffff1673ffffffffffffffffffffffffffffffffffffffff1614610396576040517f08c379a000000000000000000000000000000000000000000000000000000000815260040161038d90611ab3565b60405180910390fd5b600080600084815260200190815260200160002060010180548060200260200160405190810160405280929190818152602001828054801561042d57602002820191906000526020600020905b8160009054906101000a900473ffffffffffffffffffffffffffffffffffffffff1673ffffffffffffffffffffffffffffffffffffffff16815260200190600101908083116103e3575b505050505090506000805b82518110156104a4578373ffffffffffffffffffffffffffffffffffffffff1683828151811061046b5761046a611ad3565b5b602002602001015173ffffffffffffffffffffffffffffffffffffffff160361049757600191506104a4565b8080600101915050610438565b50806104e5576040517f08c379a00000000000000000000000000000000000000000000000000000000081526004016104dc90611b4e565b60405180910390fd5b6000600183516104f591906119ed565b67ffffffffffffffff81111561050e5761050d611600565b5b60405190808252806020026020018201604052801561053c5781602001602082028036833780820191505090505b5090506000805b845181101561061d578573ffffffffffffffffffffffffffffffffffffffff1685828151811061057657610575611ad3565b5b602002602001015173ffffffffffffffffffffffffffffffffffffffff1614610610578481815181106105ac576105ab611ad3565b5b60200260200101518383815181106105c7576105c6611ad3565b5b602002602001019073ffffffffffffffffffffffffffffffffffffffff16908173ffffffffffffffffffffffffffffffffffffffff1681525050818061060c90611b6e565b9250505b8080600101915050610543565b50816000808881526020019081526020016000206001019080519060200190610647929190611335565b50505050505050565b610659816111e1565b60008060008381526020019081526020016000209050348160030160008282546106839190611bb6565b925050819055507feaa18152488ce5959073c9c79c88ca90b3d96c00de1f118cfaad664c3dab06b98233346040516106bd93929190611a30565b60405180910390a15050565b6000806000838152602001908152602001600020600301549050919050565b60008042336040516020016106fe929190611c53565b6040516020818303038152906040528051906020012060001c9050600080600080848152602001908152602001600020600101805490501190508015610779576040517f08c379a000000000000000000000000000000000000000000000000000000000815260040161077090611ccb565b60405180910390fd5b6000600167ffffffffffffffff81111561079657610795611600565b5b6040519080825280602002602001820160405280156107c45781602001602082028036833780820191505090505b50905033816000815181106107dc576107db611ad3565b5b602002602001019073ffffffffffffffffffffffffffffffffffffffff16908173ffffffffffffffffffffffffffffffffffffffff168152505060405180608001604052803373ffffffffffffffffffffffffffffffffffffffff1681526020018281526020018681526020013481525060008085815260200190815260200160002060008201518160000160006101000a81548173ffffffffffffffffffffffffffffffffffffffff021916908373ffffffffffffffffffffffffffffffffffffffff16021790555060208201518160010190805190602001906108c2929190611335565b5060408201518160020190805190602001906108df929190611335565b50606082015181600301559050507fee64d159a0098a3c9eeb9eff4c1667cc8ef1b72957323be5f036efb2a0fe1edd83338760405161092093929190611d5a565b60405180910390a1829350505050919050565b61093b6113bf565b6000808381526020019081526020016000206040518060800160405290816000820160009054906101000a900473ffffffffffffffffffffffffffffffffffffffff1673ffffffffffffffffffffffffffffffffffffffff1673ffffffffffffffffffffffffffffffffffffffff16815260200160018201805480602002602001604051908101604052809291908181526020018280548015610a3357602002820191906000526020600020905b8160009054906101000a900473ffffffffffffffffffffffffffffffffffffffff1673ffffffffffffffffffffffffffffffffffffffff16815260200190600101908083116109e9575b5050505050815260200160028201805480602002602001604051908101604052809291908181526020018280548015610ac157602002820191906000526020600020905b8160009054906101000a900473ffffffffffffffffffffffffffffffffffffffff1673ffffffffffffffffffffffffffffffffffffffff1681526020019060010190808311610a77575b505050505081526020016003820154815250509050919050565b3373ffffffffffffffffffffffffffffffffffffffff1660008084815260200190815260200160002060000160009054906101000a900473ffffffffffffffffffffffffffffffffffffffff1673ffffffffffffffffffffffffffffffffffffffff1614610b7e576040517f08c379a0000000000000000000000000000000000000000000000000000000008152600401610b7590611de4565b60405180910390fd5b60005b8151811015610e3b5760005b60008085815260200190815260200160002060010180549050811015610c9357828281518110610bc057610bbf611ad3565b5b602002602001015173ffffffffffffffffffffffffffffffffffffffff166000808681526020019081526020016000206001018281548110610c0557610c04611ad3565b5b9060005260206000200160009054906101000a900473ffffffffffffffffffffffffffffffffffffffff1673ffffffffffffffffffffffffffffffffffffffff1603610c86576040517f08c379a0000000000000000000000000000000000000000000000000000000008152600401610c7d90611e50565b60405180910390fd5b8080600101915050610b8d565b5060005b60008085815260200190815260200160002060020180549050811015610d9d57828281518110610cca57610cc9611ad3565b5b602002602001015173ffffffffffffffffffffffffffffffffffffffff166000808681526020019081526020016000206002018281548110610d0f57610d0e611ad3565b5b9060005260206000200160009054906101000a900473ffffffffffffffffffffffffffffffffffffffff1673ffffffffffffffffffffffffffffffffffffffff1603610d90576040517f08c379a0000000000000000000000000000000000000000000000000000000008152600401610d8790611ebc565b60405180910390fd5b8080600101915050610c97565b50600080848152602001908152602001600020600201828281518110610dc657610dc5611ad3565b5b60200260200101519080600181540180825580915050600190039060005260206000200160009091909190916101000a81548173ffffffffffffffffffffffffffffffffffffffff021916908373ffffffffffffffffffffffffffffffffffffffff1602179055508080600101915050610b81565b507f352bed9045fe67bbc8eb9d0ad9c816088f82ef1f42949084ea442e195f0f94988282604051610e6d929190611edc565b60405180910390a15050565b6000806000838152602001908152602001600020600201805480602002602001604051908101604052809291908181526020018280548015610f1057602002820191906000526020600020905b8160009054906101000a900473ffffffffffffffffffffffffffffffffffffffff1673ffffffffffffffffffffffffffffffffffffffff1681526020019060010190808311610ec6575b505050505090506000805b8251811015610f87573373ffffffffffffffffffffffffffffffffffffffff16838281518110610f4e57610f4d611ad3565b5b602002602001015173ffffffffffffffffffffffffffffffffffffffff1603610f7a5760019150610f87565b8080600101915050610f1b565b5080610fc8576040517f08c379a0000000000000000000000000000000000000000000000000000000008152600401610fbf90611f7e565b60405180910390fd5b600080848152602001908152602001600020600101339080600181540180825580915050600190039060005260206000200160009091909190916101000a81548173ffffffffffffffffffffffffffffffffffffffff021916908373ffffffffffffffffffffffffffffffffffffffff16021790555060006001835161104e91906119ed565b67ffffffffffffffff81111561106757611066611600565b5b6040519080825280602002602001820160405280156110955781602001602082028036833780820191505090505b5090506000805b8451811015611176573373ffffffffffffffffffffffffffffffffffffffff168582815181106110cf576110ce611ad3565b5b602002602001015173ffffffffffffffffffffffffffffffffffffffff16146111695784818151811061110557611104611ad3565b5b60200260200101518383815181106111205761111f611ad3565b5b602002602001019073ffffffffffffffffffffffffffffffffffffffff16908173ffffffffffffffffffffffffffffffffffffffff1681525050818061116590611b6e565b9250505b808060010191505061109c565b508160008087815260200190815260200160002060020190805190602001906111a0929190611335565b507f74dd3500a2b7aa52891f11ab729b88c84763d1a7927e4641cb2bdb9c0c1e8b4185336040516111d2929190611f9e565b60405180910390a15050505050565b600080600083815260200190815260200160002060010180548060200260200160405190810160405280929190818152602001828054801561127857602002820191906000526020600020905b8160009054906101000a900473ffffffffffffffffffffffffffffffffffffffff1673ffffffffffffffffffffffffffffffffffffffff168152602001906001019080831161122e575b505050505090506000805b82518110156112ef573373ffffffffffffffffffffffffffffffffffffffff168382815181106112b6576112b5611ad3565b5b602002602001015173ffffffffffffffffffffffffffffffffffffffff16036112e257600191506112ef565b8080600101915050611283565b5080611330576040517f08c379a000000000000000000000000000000000000000000000000000000000815260040161132790612039565b60405180910390fd5b505050565b8280548282559060005260206000209081019282156113ae579160200282015b828111156113ad5782518260006101000a81548173ffffffffffffffffffffffffffffffffffffffff021916908373ffffffffffffffffffffffffffffffffffffffff16021790555091602001919060010190611355565b5b5090506113bb91906113fd565b5090565b6040518060800160405280600073ffffffffffffffffffffffffffffffffffffffff1681526020016060815260200160608152602001600081525090565b5b808211156114165760008160009055506001016113fe565b5090565b6000604051905090565b600080fd5b600080fd5b6000819050919050565b6114418161142e565b811461144c57600080fd5b50565b60008135905061145e81611438565b92915050565b600073ffffffffffffffffffffffffffffffffffffffff82169050919050565b600061148f82611464565b9050919050565b61149f81611484565b81146114aa57600080fd5b50565b6000813590506114bc81611496565b92915050565b6000806000606084860312156114db576114da611424565b5b60006114e98682870161144f565b93505060206114fa8682870161144f565b925050604061150b868287016114ad565b9150509250925092565b600061152082611464565b9050919050565b61153081611515565b811461153b57600080fd5b50565b60008135905061154d81611527565b92915050565b6000806040838503121561156a57611569611424565b5b60006115788582860161144f565b92505060206115898582860161153e565b9150509250929050565b6000602082840312156115a9576115a8611424565b5b60006115b78482850161144f565b91505092915050565b6115c98161142e565b82525050565b60006020820190506115e460008301846115c0565b92915050565b600080fd5b6000601f19601f8301169050919050565b7f4e487b7100000000000000000000000000000000000000000000000000000000600052604160045260246000fd5b611638826115ef565b810181811067ffffffffffffffff8211171561165757611656611600565b5b80604052505050565b600061166a61141a565b9050611676828261162f565b919050565b600067ffffffffffffffff82111561169657611695611600565b5b602082029050602081019050919050565b600080fd5b60006116bf6116ba8461167b565b611660565b905080838252602082019050602084028301858111156116e2576116e16116a7565b5b835b8181101561170b57806116f7888261153e565b8452602084019350506020810190506116e4565b5050509392505050565b600082601f83011261172a576117296115ea565b5b813561173a8482602086016116ac565b91505092915050565b60006020828403121561175957611758611424565b5b600082013567ffffffffffffffff81111561177757611776611429565b5b61178384828501611715565b91505092915050565b61179581611515565b82525050565b600081519050919050565b600082825260208201905092915050565b6000819050602082019050919050565b60006117d3838361178c565b60208301905092915050565b6000602082019050919050565b60006117f78261179b565b61180181856117a6565b935061180c836117b7565b8060005b8381101561183d57815161182488826117c7565b975061182f836117df565b925050600181019050611810565b5085935050505092915050565b6118538161142e565b82525050565b6000608083016000830151611871600086018261178c565b506020830151848203602086015261188982826117ec565b915050604083015184820360408601526118a382826117ec565b91505060608301516118b8606086018261184a565b508091505092915050565b600060208201905081810360008301526118dd8184611859565b905092915050565b600080604083850312156118fc576118fb611424565b5b600061190a8582860161144f565b925050602083013567ffffffffffffffff81111561192b5761192a611429565b5b61193785828601611715565b9150509250929050565b600082825260208201905092915050565b7f496e73756666696369656e742062616c616e6365000000000000000000000000600082015250565b6000611988601483611941565b915061199382611952565b602082019050919050565b600060208201905081810360008301526119b78161197b565b9050919050565b7f4e487b7100000000000000000000000000000000000000000000000000000000600052601160045260246000fd5b60006119f88261142e565b9150611a038361142e565b9250828203905081811115611a1b57611a1a6119be565b5b92915050565b611a2a81611515565b82525050565b6000606082019050611a4560008301866115c0565b611a526020830185611a21565b611a5f60408301846115c0565b949350505050565b7f4f6e6c792061646d696e2063616e2072656d6f7665206d656d62657273000000600082015250565b6000611a9d601d83611941565b9150611aa882611a67565b602082019050919050565b60006020820190508181036000830152611acc81611a90565b9050919050565b7f4e487b7100000000000000000000000000000000000000000000000000000000600052603260045260246000fd5b7f4d656d626572206e6f7420666f756e6400000000000000000000000000000000600082015250565b6000611b38601083611941565b9150611b4382611b02565b602082019050919050565b60006020820190508181036000830152611b6781611b2b565b9050919050565b6000611b798261142e565b91507fffffffffffffffffffffffffffffffffffffffffffffffffffffffffffffffff8203611bab57611baa6119be565b5b600182019050919050565b6000611bc18261142e565b9150611bcc8361142e565b9250828201905080821115611be457611be36119be565b5b92915050565b6000819050919050565b611c05611c008261142e565b611bea565b82525050565b60008160601b9050919050565b6000611c2382611c0b565b9050919050565b6000611c3582611c18565b9050919050565b611c4d611c4882611515565b611c2a565b82525050565b6000611c5f8285611bf4565b602082019150611c6f8284611c3c565b6014820191508190509392505050565b7f47726f757020616c726561647920657869737473000000000000000000000000600082015250565b6000611cb5601483611941565b9150611cc082611c7f565b602082019050919050565b60006020820190508181036000830152611ce481611ca8565b9050919050565b600082825260208201905092915050565b6000611d078261179b565b611d118185611ceb565b9350611d1c836117b7565b8060005b83811015611d4d578151611d3488826117c7565b9750611d3f836117df565b925050600181019050611d20565b5085935050505092915050565b6000606082019050611d6f60008301866115c0565b611d7c6020830185611a21565b8181036040830152611d8e8184611cfc565b9050949350505050565b7f4f6e6c792061646d696e2063616e20696e76697465206d656d62657273000000600082015250565b6000611dce601d83611941565b9150611dd982611d98565b602082019050919050565b60006020820190508181036000830152611dfd81611dc1565b9050919050565b7f496e766974656520697320616c72656164792061206d656d6265720000000000600082015250565b6000611e3a601b83611941565b9150611e4582611e04565b602082019050919050565b60006020820190508181036000830152611e6981611e2d565b9050919050565b7f496e766974656520697320616c726561647920696e7669746564000000000000600082015250565b6000611ea6601a83611941565b9150611eb182611e70565b602082019050919050565b60006020820190508181036000830152611ed581611e99565b9050919050565b6000604082019050611ef160008301856115c0565b8181036020830152611f038184611cfc565b90509392505050565b7f596f7520617265206e6f7420696e766974656420746f20746869732067726f7560008201527f7000000000000000000000000000000000000000000000000000000000000000602082015250565b6000611f68602183611941565b9150611f7382611f0c565b604082019050919050565b60006020820190508181036000830152611f9781611f5b565b9050919050565b6000604082019050611fb360008301856115c0565b611fc06020830184611a21565b9392505050565b7f596f7520617265206e6f742061206d656d626572206f6620746869732067726f60008201527f7570000000000000000000000000000000000000000000000000000000000000602082015250565b6000612023602283611941565b915061202e82611fc7565b604082019050919050565b6000602082019050818103600083015261205281612016565b905091905056fea2646970667358221220010bd146b39d1d274e66774594acfaa59462f8526dc90fc904ac5fe06870d0f664736f6c63430008180033",
  "linkReferences": {},
  "deployedLinkReferences": {}
}