{
  "_format": "hh-sol-artifact-1",
  "contractName": "JointMoneyErc20",
  "sourceName": "contracts/JointMoneyErc20.sol",
  "abi": [
    {
      "anonymous": false,
      "inputs": [
        {
          "indexed": false,
          "internalType": "uint256",
          "name": "id",
          "type": "uint256"
        },
        {
          "indexed": false,
          "internalType": "address",
          "name": "member",
          "type": "address"
        }
      ],
      "name": "GroupAccepted",
      "type": "event"
    },
    {
      "anonymous": false,
      "inputs": [
        {
          "indexed": false,
          "internalType": "uint256",
          "name": "id",
          "type": "uint256"
        },
        {
          "indexed": false,
          "internalType": "address",
          "name": "member",
          "type": "address"
        },
        {
          "indexed": false,
          "internalType": "uint256",
          "name": "amount",
          "type": "uint256"
        }
      ],
      "name": "GroupAllowanceSet",
      "type": "event"
    },
    {
      "anonymous": false,
      "inputs": [
        {
          "indexed": false,
          "internalType": "uint256",
          "name": "id",
          "type": "uint256"
        },
        {
          "indexed": false,
          "internalType": "address",
          "name": "admin",
          "type": "address"
        }
      ],
      "name": "GroupCreated",
      "type": "event"
    },
    {
      "anonymous": false,
      "inputs": [
        {
          "indexed": false,
          "internalType": "uint256",
          "name": "id",
          "type": "uint256"
        },
        {
          "indexed": false,
          "internalType": "address",
          "name": "member",
          "type": "address"
        },
        {
          "indexed": false,
          "internalType": "address",
          "name": "tokenAddress",
          "type": "address"
        },
        {
          "indexed": false,
          "internalType": "uint256",
          "name": "amount",
          "type": "uint256"
        }
      ],
      "name": "GroupDeposited",
      "type": "event"
    },
    {
      "anonymous": false,
      "inputs": [
        {
          "indexed": false,
          "internalType": "uint256",
          "name": "id",
          "type": "uint256"
        },
        {
          "indexed": false,
          "internalType": "address",
          "name": "invitee",
          "type": "address"
        }
      ],
      "name": "GroupInvitationCancelled",
      "type": "event"
    },
    {
      "anonymous": false,
      "inputs": [
        {
          "indexed": false,
          "internalType": "uint256",
          "name": "id",
          "type": "uint256"
        },
        {
          "indexed": false,
          "internalType": "address",
          "name": "invitee",
          "type": "address"
        }
      ],
      "name": "GroupInvited",
      "type": "event"
    },
    {
      "anonymous": false,
      "inputs": [
        {
          "indexed": false,
          "internalType": "uint256",
          "name": "id",
          "type": "uint256"
        },
        {
          "indexed": false,
          "internalType": "address",
          "name": "member",
          "type": "address"
        }
      ],
      "name": "GroupLeft",
      "type": "event"
    },
    {
      "anonymous": false,
      "inputs": [
        {
          "indexed": false,
          "internalType": "uint256",
          "name": "id",
          "type": "uint256"
        },
        {
          "indexed": false,
          "internalType": "address",
          "name": "member",
          "type": "address"
        },
        {
          "indexed": false,
          "internalType": "address",
          "name": "token",
          "type": "address"
        },
        {
          "indexed": false,
          "internalType": "uint256",
          "name": "amount",
          "type": "uint256"
        }
      ],
      "name": "GroupWithdrawn",
      "type": "event"
    },
    {
      "inputs": [
        {
          "internalType": "uint256",
          "name": "groupId",
          "type": "uint256"
        }
      ],
      "name": "accept",
      "outputs": [],
      "stateMutability": "nonpayable",
      "type": "function"
    },
    {
      "inputs": [
        {
          "internalType": "uint256",
          "name": "groupId",
          "type": "uint256"
        },
        {
          "internalType": "address",
          "name": "invitee",
          "type": "address"
        }
      ],
      "name": "cancelInvitatioin",
      "outputs": [],
      "stateMutability": "nonpayable",
      "type": "function"
    },
    {
      "inputs": [],
      "name": "createGroup",
      "outputs": [],
      "stateMutability": "nonpayable",
      "type": "function"
    },
    {
      "inputs": [
        {
          "internalType": "uint256",
          "name": "groupId",
          "type": "uint256"
        },
        {
          "internalType": "address",
          "name": "tokenAddress",
          "type": "address"
        },
        {
          "internalType": "uint256",
          "name": "amount",
          "type": "uint256"
        }
      ],
      "name": "deposit",
      "outputs": [],
      "stateMutability": "nonpayable",
      "type": "function"
    },
    {
      "inputs": [
        {
          "internalType": "uint256",
          "name": "groupId",
          "type": "uint256"
        },
        {
          "internalType": "address",
          "name": "token",
          "type": "address"
        }
      ],
      "name": "getBalance",
      "outputs": [
        {
          "internalType": "uint256",
          "name": "",
          "type": "uint256"
        }
      ],
      "stateMutability": "view",
      "type": "function"
    },
    {
      "inputs": [],
      "name": "groupCount",
      "outputs": [
        {
          "internalType": "uint256",
          "name": "",
          "type": "uint256"
        }
      ],
      "stateMutability": "view",
      "type": "function"
    },
    {
      "inputs": [
        {
          "internalType": "uint256",
          "name": "",
          "type": "uint256"
        }
      ],
      "name": "groupSettings",
      "outputs": [
        {
          "internalType": "address",
          "name": "admin",
          "type": "address"
        }
      ],
      "stateMutability": "view",
      "type": "function"
    },
    {
      "inputs": [
        {
          "internalType": "uint256",
          "name": "",
          "type": "uint256"
        },
        {
          "internalType": "address",
          "name": "",
          "type": "address"
        }
      ],
      "name": "groupTokenAmount",
      "outputs": [
        {
          "internalType": "uint256",
          "name": "",
          "type": "uint256"
        }
      ],
      "stateMutability": "view",
      "type": "function"
    },
    {
      "inputs": [
        {
          "internalType": "uint256",
          "name": "",
          "type": "uint256"
        },
        {
          "internalType": "address",
          "name": "",
          "type": "address"
        }
      ],
      "name": "groupUserSettings",
      "outputs": [
        {
          "internalType": "bool",
          "name": "isMember",
          "type": "bool"
        },
        {
          "internalType": "uint256",
          "name": "dailyAllowance",
          "type": "uint256"
        },
        {
          "internalType": "uint256",
          "name": "dailySpent",
          "type": "uint256"
        },
        {
          "internalType": "uint256",
          "name": "lastSpentAt",
          "type": "uint256"
        },
        {
          "internalType": "bool",
          "name": "isInvited",
          "type": "bool"
        }
      ],
      "stateMutability": "view",
      "type": "function"
    },
    {
      "inputs": [
        {
          "internalType": "uint256",
          "name": "groupId",
          "type": "uint256"
        },
        {
          "internalType": "address",
          "name": "invitee",
          "type": "address"
        }
      ],
      "name": "invite",
      "outputs": [],
      "stateMutability": "nonpayable",
      "type": "function"
    },
    {
      "inputs": [
        {
          "internalType": "uint256",
          "name": "groupId",
          "type": "uint256"
        }
      ],
      "name": "leaveGroup",
      "outputs": [],
      "stateMutability": "nonpayable",
      "type": "function"
    },
    {
      "inputs": [
        {
          "internalType": "uint256",
          "name": "groupId",
          "type": "uint256"
        },
        {
          "internalType": "address",
          "name": "member",
          "type": "address"
        }
      ],
      "name": "removeMember",
      "outputs": [],
      "stateMutability": "nonpayable",
      "type": "function"
    },
    {
      "inputs": [
        {
          "internalType": "uint256",
          "name": "groupId",
          "type": "uint256"
        },
        {
          "internalType": "address",
          "name": "user",
          "type": "address"
        },
        {
          "internalType": "uint256",
          "name": "amount",
          "type": "uint256"
        }
      ],
      "name": "setAllowance",
      "outputs": [],
      "stateMutability": "nonpayable",
      "type": "function"
    },
    {
      "inputs": [
        {
          "internalType": "uint256",
          "name": "groupId",
          "type": "uint256"
        },
        {
          "internalType": "address",
          "name": "tokenAddress",
          "type": "address"
        },
        {
          "internalType": "uint256",
          "name": "amount",
          "type": "uint256"
        },
        {
          "internalType": "address",
          "name": "to",
          "type": "address"
        }
      ],
      "name": "withdraw",
      "outputs": [],
      "stateMutability": "nonpayable",
      "type": "function"
    }
  ],
  "bytecode": "0x60806040526000805534801561001457600080fd5b506120bf806100246000396000f3fe608060405234801561001057600080fd5b50600436106100ea5760003560e01c80637ae690231161008c578063b0a7945911610066578063b0a794591461020f578063bc157ac11461023f578063c19c90f11461025b578063ccba89051461028b576100ea565b80637ae69023146101b95780638f23b326146101d55780639606a9ed146101f3576100ea565b80634b51fa75116100c85780634b51fa751461015b578063575185ed146101775780635f0f48bd146101815780636be7658b1461019d576100ea565b806319b05f49146100ef57806333471df51461010b57806347749f2814610127575b600080fd5b61010960048036038101906101049190611756565b6102bb565b005b61012560048036038101906101209190611756565b61046f565b005b610141600480360381019061013c91906117e1565b610682565b60405161015295949392919061184b565b60405180910390f35b610175600480360381019061017091906117e1565b6106df565b005b61017f6108cc565b005b61019b6004803603810190610196919061189e565b610aa4565b005b6101b760048036038101906101b291906117e1565b610fae565b005b6101d360048036038101906101ce91906117e1565b6111c6565b005b6101dd611313565b6040516101ea9190611905565b60405180910390f35b61020d60048036038101906102089190611920565b611319565b005b610229600480360381019061022491906117e1565b611455565b6040516102369190611905565b60405180910390f35b61025960048036038101906102549190611920565b6114b0565b005b610275600480360381019061027091906117e1565b6116b8565b6040516102829190611905565b60405180910390f35b6102a560048036038101906102a09190611756565b6116dd565b6040516102b29190611982565b60405180910390f35b6002600082815260200190815260200160002060003373ffffffffffffffffffffffffffffffffffffffff1673ffffffffffffffffffffffffffffffffffffffff16815260200190815260200160002060040160009054906101000a900460ff1661035b576040517f08c379a000000000000000000000000000000000000000000000000000000000815260040161035290611a20565b60405180910390fd5b60016002600083815260200190815260200160002060003373ffffffffffffffffffffffffffffffffffffffff1673ffffffffffffffffffffffffffffffffffffffff16815260200190815260200160002060000160006101000a81548160ff02191690831515021790555060006002600083815260200190815260200160002060003373ffffffffffffffffffffffffffffffffffffffff1673ffffffffffffffffffffffffffffffffffffffff16815260200190815260200160002060040160006101000a81548160ff0219169083151502179055507fed4f111f70562a5298608713567796b377114ad571dc38199574b834a178b7b58133604051610464929190611a40565b60405180910390a150565b6002600082815260200190815260200160002060003373ffffffffffffffffffffffffffffffffffffffff1673ffffffffffffffffffffffffffffffffffffffff16815260200190815260200160002060000160009054906101000a900460ff1661050f576040517f08c379a000000000000000000000000000000000000000000000000000000000815260040161050690611adb565b60405180910390fd5b3373ffffffffffffffffffffffffffffffffffffffff166003600083815260200190815260200160002060000160009054906101000a900473ffffffffffffffffffffffffffffffffffffffff1673ffffffffffffffffffffffffffffffffffffffff16036105b3576040517f08c379a00000000000000000000000000000000000000000000000000000000081526004016105aa90611b47565b60405180910390fd5b6002600082815260200190815260200160002060003373ffffffffffffffffffffffffffffffffffffffff1673ffffffffffffffffffffffffffffffffffffffff168152602001908152602001600020600080820160006101000a81549060ff02191690556001820160009055600282016000905560038201600090556004820160006101000a81549060ff021916905550507f136090f261f016cc705317a2744c016a5d5c0ac8dfe90a2b529614feb68c4e9d8133604051610677929190611a40565b60405180910390a150565b6002602052816000526040600020602052806000526040600020600091509150508060000160009054906101000a900460ff16908060010154908060020154908060030154908060040160009054906101000a900460ff16905085565b3373ffffffffffffffffffffffffffffffffffffffff166003600084815260200190815260200160002060000160009054906101000a900473ffffffffffffffffffffffffffffffffffffffff1673ffffffffffffffffffffffffffffffffffffffff1614610783576040517f08c379a000000000000000000000000000000000000000000000000000000000815260040161077a90611bd9565b60405180910390fd5b6002600083815260200190815260200160002060008273ffffffffffffffffffffffffffffffffffffffff1673ffffffffffffffffffffffffffffffffffffffff16815260200190815260200160002060040160009054906101000a900460ff16610823576040517f08c379a000000000000000000000000000000000000000000000000000000000815260040161081a90611c45565b60405180910390fd5b60006002600084815260200190815260200160002060008373ffffffffffffffffffffffffffffffffffffffff1673ffffffffffffffffffffffffffffffffffffffff16815260200190815260200160002060040160006101000a81548160ff0219169083151502179055507f0dcf568e005fb4d7934728af3d9aada69a7759415c1ed033a61c207dc2edaadd82826040516108c0929190611a40565b60405180910390a15050565b6000808154809291906108de90611c94565b919050555060405180602001604052803373ffffffffffffffffffffffffffffffffffffffff16815250600360008054815260200190815260200160002060008201518160000160006101000a81548173ffffffffffffffffffffffffffffffffffffffff021916908373ffffffffffffffffffffffffffffffffffffffff1602179055509050506040518060a001604052806001151581526020017fffffffffffffffffffffffffffffffffffffffffffffffffffffffffffffffff8152602001600081526020016000815260200160001515815250600260008054815260200190815260200160002060003373ffffffffffffffffffffffffffffffffffffffff1673ffffffffffffffffffffffffffffffffffffffff16815260200190815260200160002060008201518160000160006101000a81548160ff02191690831515021790555060208201518160010155604082015181600201556060820151816003015560808201518160040160006101000a81548160ff0219169083151502179055509050507f6958b51b54d963fa8eeeea5b61b83a9ad28f9ee9d5a2f1b8495e6866cb534bb160005433604051610a9a929190611a40565b60405180910390a1565b6002600085815260200190815260200160002060003373ffffffffffffffffffffffffffffffffffffffff1673ffffffffffffffffffffffffffffffffffffffff16815260200190815260200160002060000160009054906101000a900460ff16610b44576040517f08c379a0000000000000000000000000000000000000000000000000000000008152600401610b3b90611adb565b60405180910390fd5b816001600086815260200190815260200160002060008573ffffffffffffffffffffffffffffffffffffffff1673ffffffffffffffffffffffffffffffffffffffff168152602001908152602001600020541015610bd7576040517f08c379a0000000000000000000000000000000000000000000000000000000008152600401610bce90611d28565b60405180910390fd5b60006002600086815260200190815260200160002060003373ffffffffffffffffffffffffffffffffffffffff1673ffffffffffffffffffffffffffffffffffffffff16815260200190815260200160002060020154905060006002600087815260200190815260200160002060003373ffffffffffffffffffffffffffffffffffffffff1673ffffffffffffffffffffffffffffffffffffffff16815260200190815260200160002060030154905060006002600088815260200190815260200160002060003373ffffffffffffffffffffffffffffffffffffffff1673ffffffffffffffffffffffffffffffffffffffff16815260200190815260200160002060010154905060006201518042610cf09190611d77565b6201518084610cff9190611d77565b1490506000818015610d1057508483115b15610d28578483610d219190611da8565b9050610d2c565b8290505b86811015610d6f576040517f08c379a0000000000000000000000000000000000000000000000000000000008152600401610d6690611e28565b60405180910390fd5b8115610d88578685610d819190611e48565b9450610d8c565b8694505b84600260008b815260200190815260200160002060003373ffffffffffffffffffffffffffffffffffffffff1673ffffffffffffffffffffffffffffffffffffffff1681526020019081526020016000206002018190555042600260008b815260200190815260200160002060003373ffffffffffffffffffffffffffffffffffffffff1673ffffffffffffffffffffffffffffffffffffffff1681526020019081526020016000206003018190555060008890508073ffffffffffffffffffffffffffffffffffffffff1663a9059cbb888a6040518363ffffffff1660e01b8152600401610e7c929190611e7c565b6020604051808303816000875af1158015610e9b573d6000803e3d6000fd5b505050506040513d601f19601f82011682018060405250810190610ebf9190611ed1565b610efe576040517f08c379a0000000000000000000000000000000000000000000000000000000008152600401610ef590611f4a565b60405180910390fd5b87600160008c815260200190815260200160002060008b73ffffffffffffffffffffffffffffffffffffffff1673ffffffffffffffffffffffffffffffffffffffff1681526020019081526020016000206000828254610f5e9190611da8565b925050819055507f95c8fde303c0b32a8df290eedf185ddc29f5b760747529f24753957cc42ce5908a338b8b604051610f9a9493929190611f6a565b60405180910390a150505050505050505050565b3373ffffffffffffffffffffffffffffffffffffffff166003600084815260200190815260200160002060000160009054906101000a900473ffffffffffffffffffffffffffffffffffffffff1673ffffffffffffffffffffffffffffffffffffffff1614611052576040517f08c379a000000000000000000000000000000000000000000000000000000000815260040161104990611bd9565b60405180910390fd5b8073ffffffffffffffffffffffffffffffffffffffff166003600084815260200190815260200160002060000160009054906101000a900473ffffffffffffffffffffffffffffffffffffffff1673ffffffffffffffffffffffffffffffffffffffff16036110f6576040517f08c379a00000000000000000000000000000000000000000000000000000000081526004016110ed90611ffb565b60405180910390fd5b6002600083815260200190815260200160002060008273ffffffffffffffffffffffffffffffffffffffff1673ffffffffffffffffffffffffffffffffffffffff168152602001908152602001600020600080820160006101000a81549060ff02191690556001820160009055600282016000905560038201600090556004820160006101000a81549060ff021916905550507f136090f261f016cc705317a2744c016a5d5c0ac8dfe90a2b529614feb68c4e9d82826040516111ba929190611a40565b60405180910390a15050565b3373ffffffffffffffffffffffffffffffffffffffff166003600084815260200190815260200160002060000160009054906101000a900473ffffffffffffffffffffffffffffffffffffffff1673ffffffffffffffffffffffffffffffffffffffff161461126a576040517f08c379a000000000000000000000000000000000000000000000000000000000815260040161126190611bd9565b60405180910390fd5b60016002600084815260200190815260200160002060008373ffffffffffffffffffffffffffffffffffffffff1673ffffffffffffffffffffffffffffffffffffffff16815260200190815260200160002060040160006101000a81548160ff0219169083151502179055507f6d965d2d2321066cf72583f5295125a91ed42fdf84eb066b7779d0598357afef8282604051611307929190611a40565b60405180910390a15050565b60005481565b3373ffffffffffffffffffffffffffffffffffffffff166003600085815260200190815260200160002060000160009054906101000a900473ffffffffffffffffffffffffffffffffffffffff1673ffffffffffffffffffffffffffffffffffffffff16146113bd576040517f08c379a00000000000000000000000000000000000000000000000000000000081526004016113b490611bd9565b60405180910390fd5b806002600085815260200190815260200160002060008473ffffffffffffffffffffffffffffffffffffffff1673ffffffffffffffffffffffffffffffffffffffff168152602001908152602001600020600101819055507f77d5c97b2e2f9b0e4c476895250fc6ce6e2788b98bc02a77dc070eca263f1c4b8383836040516114489392919061201b565b60405180910390a1505050565b60006001600084815260200190815260200160002060008373ffffffffffffffffffffffffffffffffffffffff1673ffffffffffffffffffffffffffffffffffffffff16815260200190815260200160002054905092915050565b6002600084815260200190815260200160002060003373ffffffffffffffffffffffffffffffffffffffff1673ffffffffffffffffffffffffffffffffffffffff16815260200190815260200160002060000160009054906101000a900460ff16611550576040517f08c379a000000000000000000000000000000000000000000000000000000000815260040161154790611adb565b60405180910390fd5b8173ffffffffffffffffffffffffffffffffffffffff166323b872dd3330846040518463ffffffff1660e01b815260040161158d93929190612052565b6020604051808303816000875af11580156115ac573d6000803e3d6000fd5b505050506040513d601f19601f820116820180604052508101906115d09190611ed1565b61160f576040517f08c379a000000000000000000000000000000000000000000000000000000000815260040161160690611f4a565b60405180910390fd5b806001600085815260200190815260200160002060008473ffffffffffffffffffffffffffffffffffffffff1673ffffffffffffffffffffffffffffffffffffffff168152602001908152602001600020600082825461166f9190611e48565b925050819055507fb449ec3adad508f053ac18a61aa36ec4683139f1256ee66e01add69776db5494833384846040516116ab9493929190611f6a565b60405180910390a1505050565b6001602052816000526040600020602052806000526040600020600091509150505481565b60036020528060005260406000206000915090508060000160009054906101000a900473ffffffffffffffffffffffffffffffffffffffff16905081565b600080fd5b6000819050919050565b61173381611720565b811461173e57600080fd5b50565b6000813590506117508161172a565b92915050565b60006020828403121561176c5761176b61171b565b5b600061177a84828501611741565b91505092915050565b600073ffffffffffffffffffffffffffffffffffffffff82169050919050565b60006117ae82611783565b9050919050565b6117be816117a3565b81146117c957600080fd5b50565b6000813590506117db816117b5565b92915050565b600080604083850312156117f8576117f761171b565b5b600061180685828601611741565b9250506020611817858286016117cc565b9150509250929050565b60008115159050919050565b61183681611821565b82525050565b61184581611720565b82525050565b600060a082019050611860600083018861182d565b61186d602083018761183c565b61187a604083018661183c565b611887606083018561183c565b611894608083018461182d565b9695505050505050565b600080600080608085870312156118b8576118b761171b565b5b60006118c687828801611741565b94505060206118d7878288016117cc565b93505060406118e887828801611741565b92505060606118f9878288016117cc565b91505092959194509250565b600060208201905061191a600083018461183c565b92915050565b6000806000606084860312156119395761193861171b565b5b600061194786828701611741565b9350506020611958868287016117cc565b925050604061196986828701611741565b9150509250925092565b61197c816117a3565b82525050565b60006020820190506119976000830184611973565b92915050565b600082825260208201905092915050565b7f596f7520617265206e6f7420696e766974656420746f20746869732067726f7560008201527f7000000000000000000000000000000000000000000000000000000000000000602082015250565b6000611a0a60218361199d565b9150611a15826119ae565b604082019050919050565b60006020820190508181036000830152611a39816119fd565b9050919050565b6000604082019050611a55600083018561183c565b611a626020830184611973565b9392505050565b7f596f7520617265206e6f742061206d656d626572206f6620746869732067726f60008201527f7570000000000000000000000000000000000000000000000000000000000000602082015250565b6000611ac560228361199d565b9150611ad082611a69565b604082019050919050565b60006020820190508181036000830152611af481611ab8565b9050919050565b7f41646d696e2063616e6e6f74206c65617665207468652067726f757000000000600082015250565b6000611b31601c8361199d565b9150611b3c82611afb565b602082019050919050565b60006020820190508181036000830152611b6081611b24565b9050919050565b7f596f7520617265206e6f74207468652061646d696e206f66207468697320677260008201527f6f75700000000000000000000000000000000000000000000000000000000000602082015250565b6000611bc360238361199d565b9150611bce82611b67565b604082019050919050565b60006020820190508181036000830152611bf281611bb6565b9050919050565b7f55736572206973206e6f7420696e766974656400000000000000000000000000600082015250565b6000611c2f60138361199d565b9150611c3a82611bf9565b602082019050919050565b60006020820190508181036000830152611c5e81611c22565b9050919050565b7f4e487b7100000000000000000000000000000000000000000000000000000000600052601160045260246000fd5b6000611c9f82611720565b91507fffffffffffffffffffffffffffffffffffffffffffffffffffffffffffffffff8203611cd157611cd0611c65565b5b600182019050919050565b7f416d6f756e7420657863656564732062616c616e636500000000000000000000600082015250565b6000611d1260168361199d565b9150611d1d82611cdc565b602082019050919050565b60006020820190508181036000830152611d4181611d05565b9050919050565b7f4e487b7100000000000000000000000000000000000000000000000000000000600052601260045260246000fd5b6000611d8282611720565b9150611d8d83611720565b925082611d9d57611d9c611d48565b5b828204905092915050565b6000611db382611720565b9150611dbe83611720565b9250828203905081811115611dd657611dd5611c65565b5b92915050565b7f4461696c7920616c6c6f77616e63652065786365656465640000000000000000600082015250565b6000611e1260188361199d565b9150611e1d82611ddc565b602082019050919050565b60006020820190508181036000830152611e4181611e05565b9050919050565b6000611e5382611720565b9150611e5e83611720565b9250828201905080821115611e7657611e75611c65565b5b92915050565b6000604082019050611e916000830185611973565b611e9e602083018461183c565b9392505050565b611eae81611821565b8114611eb957600080fd5b50565b600081519050611ecb81611ea5565b92915050565b600060208284031215611ee757611ee661171b565b5b6000611ef584828501611ebc565b91505092915050565b7f5472616e73666572206661696c65640000000000000000000000000000000000600082015250565b6000611f34600f8361199d565b9150611f3f82611efe565b602082019050919050565b60006020820190508181036000830152611f6381611f27565b9050919050565b6000608082019050611f7f600083018761183c565b611f8c6020830186611973565b611f996040830185611973565b611fa6606083018461183c565b95945050505050565b7f41646d696e2063616e6e6f742062652072656d6f766564000000000000000000600082015250565b6000611fe560178361199d565b9150611ff082611faf565b602082019050919050565b6000602082019050818103600083015261201481611fd8565b9050919050565b6000606082019050612030600083018661183c565b61203d6020830185611973565b61204a604083018461183c565b949350505050565b60006060820190506120676000830186611973565b6120746020830185611973565b612081604083018461183c565b94935050505056fea26469706673582212208ae87bed541f0fb95ea4a152fa0c63d2f0f95c629c6fdad67c4f7a4011fa309764736f6c63430008180033",
  "linkReferences": {},
  "deployedLinkReferences": {}
}